:020000040000FA
:04000000FEEF17F008
:102AF000080E936E816A120010EC16F078EC15F057
:102B000000EC17F012007CEC15F0AFEC16F085EF3E
:102B100015F0FEEF17F0236A226A216A206A000E80
:102B2000F86E000183EF15F0D90E036E2F0E046EC0
:102B3000C00E056E2EEC16F00650D96EDA6A020E43
:102B4000D926DF6A06C003F0046AC50E056E2EECB6
:102B500016F01200E90E036E2F0E046E880E056E3D
:102B60002EEC16F00650D96EDA6A040ED926DF6A0A
:102B700006C003F0046A8C0E056E2EEC16F01200EF
:102B8000E40E036E2F0E046E800E056E2EEC16F012
:102B90000650D96EDA6A020ED926DF6A06C003F043
:102BA000046A840E056E2EEC16F01200026E01B05F
:102BB000DCEF15F0DFEF15F08282E0EF15F0829286
:102BC00002C083FF82848294958E82808292828466
:102BD000829483BEEEEF15F0F0EF15F0E7EF15F0FD
:102BE0008290959E12006150036E046AD89003365D
:102BF0000436D89003360436D8900336043662384B
:102C0000E842070B070B056E066A03500510076EB6
:102C100004500610086E07C001F008C002F0120050
:102C2000939493861F0E6F166F8E800E6E18D8A425
:102C30001CEF16F01EEF16F015EF16F0776AE10E96
:102C4000706E1B0E716E030E726E0D01D46B1F0E33
:102C50006F166F50606A608A608C1200000E016E01
:102C60000550D6EC15F04BEF16F0010E016E03C0C7
:102C7000F6FF04C0F7FFF86A050EF76403D00800FA
:102C8000F55005D0F6CFE9FFF7CFEAFFEF50D6ECCD
:102C900015F0034A042A03C0F6FF04C0F7FFF86AE0
:102CA000050EF76403D00800F55005D0F6CFE9FF14
:102CB000F7CFEAFFEF500009D8A461EF16F063EFF9
:102CC00016F035EF16F0120060AE69EF16F06BEFFC
:102CD00016F0AAEF16F0F3EC15F00950D96EDA6A87
:102CE00001C0DEFF02C0DDFF0B50D96EDA6A65CF8E
:102CF000DFFF660E0F6E0F0E106E000E126E000ECE
:102D0000116E91EF16F011500F24D96E1250102051
:102D1000DA6E0A501124E16EE26ADFCFE7FF114A52
:102D2000122A0B50D96EDA6ADF500C6E0D6A0C5005
:102D3000115C1250800A0E6E0D50800A0E58D8A0F9
:102D4000A4EF16F0A6EF16F083EF16F0609EA490A5
:102D5000AEEF16F00B50D96EDA6ADF6A12001D0E64
:102D6000096E130E0A6E1F0E0B6E64EC16F0100E39
:102D70001D181E10D8A4BFEF16F0C1EF16F0C9EF52
:102D800016F0130E066E1FC007F0C0EC15F0FFEF33
:102D900016F0300E1D181E10D8A4D1EF16F0D3EF88
:102DA00016F0DBEF16F0130E066E1FC007F0AAEC4C
:102DB00015F0FFEF16F0200E1D181E10D8A4E3EF3B
:102DC00016F0E5EF16F0EDEF16F0130E066E1FC0CD
:102DD00007F094EC15F0FFEF16F0500E1D181E10C2
:102DE000D8A4F5EF16F0F7EF16F0FFEF16F0130E7C
:102DF000066E1FC007F053EC17F0FFEF16F012003D
:102E0000956A9450F80B946E8290C30E036ECD0EAB
:102E1000E82EFED7032EFCD70000000E016E330E05
:102E2000D6EC15F01B0E036E9E0EE82EFED7032E79
:102E3000FCD700D0000E016E330ED6EC15F0A60EB6
:102E4000E82EFED700D0000E016E330ED6EC15F042
:102E500000D000D00000000E016E020ED6EC15F07E
:102E6000A60EE82EFED700D0000E016E380ED6EC6E
:102E700015F0A60EE82EFED700D0000E016E010E52
:102E8000D6EC15F0040E036E3E0EE82EFED7032E90
:102E9000FCD7000E016E0C0ED6EC15F0A60EE82E37
:102EA000FED700D01200DF0E036E2F0E046EC80E88
:102EB000056E2EEC16F0D9EF17F0215007E1C80E81
:102EC000205CD8B066EF17F068EF17F078EF17F0D6
:102ED00081500309816E81503F0B816EF20E036EAB
:102EE0002F0E046ECC0E056E2EEC16F091EF17F03F
:102EF000900E205C010E2158D8B081EF17F083EFBF
:102F000017F08DEF17F08150FC0B816E000E016EF3
:102F1000010ED6EC15F091EF17F0000E216E000EA9
:102F2000206E204A212AEBEF17F0215007E1C80E4E
:102F3000205CD8B09EEF17F0A0EF17F0B0EF17F0BD
:102F40008150C009816E8150FC0B816EEE0E036EC4
:102F50002F0E046ECC0E056E2EEC16F091EF17F0CE
:102F6000900E205C010E2158D8B0B9EF17F0BBEFDE
:102F700017F08DEF17F081503F0B816E000E016E40
:102F8000010ED6EC15F091EF17F0F60E036E2F0E32
:102F9000046ECC0E056E2EEC16F08150FC0B816E8B
:102FA00081503F0B816E000E216E000E206EEBEF04
:102FB00017F00650D96EDA6ADF50000AD8B4C5EFB0
:102FC00017F0010AD8B45DEF17F0030AD8B495EFF3
:102FD00017F0EBEF17F0120000474541523A004955
:102FE0004E443A005350443A0052504D3A003C2D62
:0B2FF00020002D3E20004F4646000050
:042FFC008BEF15F052
:020000040020DA
:08000000FFFFFFFFFFFFFFFF00
:020000040030CA
:0E000000FF071F1FFF8285FF0FC00FE00F409C
:00000001FF
