:020000040000FA
:04000000FEEF17F008
:1006000000003250800B3B6E32503224416E31AECE
:100610000CEF03F00EEF03F00FEF03F041804150B9
:10062000D8B415EF03F017EF03F02AEF03F04128D9
:10063000D8A41DEF03F01FEF03F027EF03F0000E27
:100640002F6E000E306E000E316E000E326E318E47
:1006500032EF03F0000E2F6E000E306E000E316E82
:10066000000E326E3650800B3B1A36503624406EE8
:1006700035AE3DEF03F03FEF03F040EF03F0408075
:100680004050D8B446EF03F048EF03F05BEF03F0BF
:100690004028D8A44EEF03F050EF03F058EF03F0DA
:1006A000000E336E000E346E000E356E000E366E88
:1006B000358E63EF03F0000E336E000E346E000EC5
:1006C000356E000E366E4050D8B469EF03F06BEF14
:1006D00003F073EF03F04150D8A471EF03F073EF10
:1006E00003F07DEF03F0000E2F6E000E306E000E53
:1006F000316E000E326E13EF05F035502F02F3CF3E
:1007000046F0F4CF47F046503C6E3D6A3E6A3F6A81
:100710004750426E436A446A456A34503002F3CF10
:1007200046F0F4CF47F046503C26000E3D223E22D4
:100730003F2247504226000E432244224522335096
:100740003102F3CF46F0F4CF47F046503C26000E7E
:100750003D223E223F2247504226000E43224422A1
:1007600045223EC03FF03DC03EF03CC03DF03C6AFB
:1007700033503002F3CF46F0F4CF47F046503C26DA
:1007800047503D22000E3E22000E3F2234502F02E1
:10079000F3CF46F0F4CF47F046503C2647503D2279
:1007A000000E3E22000E3F223EC03FF03DC03EF014
:1007B0003CC03DF03C6A33502F02F3CF46F0F4CFFB
:1007C00047F046503C2647503D22000E3E22000E88
:1007D0003F2235503002F3CF46F0F4CF47F0465079
:1007E000422647504322000E4422000E4522345038
:1007F0003102F3CF46F0F4CF47F04650422647503F
:100800004322000E4422000E452235503102F3CF20
:1008100046F0F4CF47F04650376E4750386E396A8D
:100820003A6A39C03AF038C039F037C038F0376A20
:100830003750422638504322395044223A504522FC
:100840003CC037F03DC038F03EC039F03FC03AF010
:10085000190E30EF04F0D8903A323932383237324C
:10086000E82E2BEF04F037504226385043223950FF
:1008700044223A5045223EC03FF03DC03EF03CC0CD
:100880003DF03C6A405041C037F0386A3726000ED0
:100890003822820E3724466EFF0E3820476E66EFF0
:1008A00004F0D89042364336443645363FAE5BEFCF
:1008B00004F05DEF04F05EEF04F04280D8903C3627
:1008C0003D363E363F364606D8A0470644AE6BEF6F
:1008D00004F06DEF04F051EF04F0406A3FAE73EFA7
:1008E00004F075EF04F099EF04F0FF0E3C14376E3E
:1008F000FF0E3D14386EFF0E3E14396E7F0E3F140E
:100900003A6E3750381039103A10D8B48AEF04F0E4
:100910008CEF04F090EF04F0010E406E99EF04F0BC
:1009200042A095EF04F097EF04F099EF04F08CEFFC
:1009300004F04050D8B49FEF04F0A1EF04F0C5EFED
:1009400004F0010E4226000E43224422452245A017
:10095000ACEF04F0AEEF04F0C5EF04F042C037F0A6
:1009600043C038F044C039F045C03AF03A343A3226
:1009700039323832373237C042F038C043F039C0EC
:1009800044F03AC045F0464A472A47BED0EF04F04B
:10099000475008E14628D8A0D0EF04F0D2EF04F089
:1009A000DCEF04F0000E426E000E436E800E446ECB
:1009B0007F0E456E09EF05F047BEE9EF04F04750A2
:1009C00006E14604D8B0E7EF04F0E9EF04F0F4EFF5
:1009D00004F0000E426E000E436E000E446E000ED8
:1009E000456E3B6A09EF05F046C041F0FF0E421626
:1009F000FF0E43167F0E4416000E451641A003EF6E
:100A000005F005EF05F006EF05F0448ED890413073
:100A1000456E3B50451242C02FF043C030F044C0F9
:100A200031F045C032F012001950800B266E19507B
:100A300019242D6E18AE1FEF05F021EF05F022EFFF
:100A400005F02D802D50D8B428EF05F02AEF05F0E1
:100A50003EEF05F02D28D8A430EF05F032EF05F079
:100A60003AEF05F0000E166E000E176E000E186EAF
:100A7000000E196E188E196A46EF05F0000E166EFC
:100A8000000E176E000E186E000E196E1D50800BB2
:100A9000261A1D501D242E6E1CAE51EF05F053EF8B
:100AA00005F054EF05F02E802E50D8B45AEF05F023
:100AB0005CEF05F070EF05F02E28D8A462EF05F08A
:100AC00064EF05F06CEF05F0000E1A6E000E1B6E61
:100AD000000E1C6E000E1D6E1C8E1D6A78EF05F058
:100AE000000E1A6E000E1B6E000E1C6E000E1D6EA8
:100AF0001A501B101C101D10D8A481EF05F083EFB5
:100B000005F09BEF05F0000E166E000E176E000E3E
:100B1000186E000E196E800E18127F0E19122650D4
:100B2000191216C016F017C017F018C018F019C027
:100B300019F0DBEF06F02D50D8A4A1EF05F0A3EFDC
:100B400005F0ADEF05F0000E166E000E176E000EEC
:100B5000186E000E196EDBEF06F02E502DC01EF041
:100B60001F6A1E5E000E1F5A7F0E1E24276E000E87
:100B70001F20286E16C022F017C023F018C024F0E2
:100B800019C025F0000E166E000E176E000E186EBE
:100B9000000E196E000E296E000E2A6E000E2B6ECE
:100BA000000E2C6E2E6A0DEF06F02E50D8B4DBEF3F
:100BB00005F0DDEF05F0F4EF05F0D890223623368E
:100BC00024362536D89016361736183619362CAEF8
:100BD000ECEF05F0EEEF05F0EFEF05F01680D890A2
:100BE00029362A362B362C361A50225C1B502358B5
:100BF0001C5024581D502558D8A001EF06F003EFD3
:100C000006F00CEF06F02C8C1A50225E1B50235A73
:100C10001C50245A1D50255A2E2A190E2E6413EFEB
:100C200006F015EF06F0D5EF05F022502310241042
:100C30002510D8B41EEF06F020EF06F038EF06F0CE
:100C4000298038EF06F0D890163617361836193640
:100C50002CAE2DEF06F02FEF06F030EF06F01680E9
:100C6000D89029362A362B362C362706D8A02806C7
:100C700018AE3DEF06F03FEF06F023EF06F02E6AC8
:100C80002CAE45EF06F047EF06F06BEF06F0FF0ED7
:100C900029141E6EFF0E2A141F6EFF0E2B14206ED9
:100CA0007F0E2C14216E1E501F1020102110D8B45E
:100CB0005CEF06F05EEF06F062EF06F0010E2E6EBE
:100CC0006BEF06F016A067EF06F069EF06F06BEF2A
:100CD00006F05EEF06F02E50D8B471EF06F073EF19
:100CE00006F097EF06F0010E1626000E17221822C6
:100CF000192219A07EEF06F080EF06F097EF06F0BC
:100D000016C01EF017C01FF018C020F019C021F047
:100D10002134213220321F321E321EC016F01FC075
:100D200017F020C018F021C019F0274A282A28BE41
:100D3000A2EF06F0285008E12728D8A0A2EF06F07D
:100D4000A4EF06F0AFEF06F0000E286E2768000E45
:100D5000166E000E176E000E186E000E196E28BE6D
:100D6000BCEF06F0285006E12704D8B0BAEF06F031
:100D7000BCEF06F0C9EF06F0000E286E000E276EDD
:100D8000000E166E000E176E000E186E000E196E15
:100D9000266A27C02DF02DA0D0EF06F0D2EF06F086
:100DA000D5EF06F0188ED6EF06F0189ED8902D30AD
:100DB000196E8FEF05F01200106E1050D8B4E3EFEB
:100DC00006F0E5EF06F007EF07F00BBEECEF06F0DC
:100DD000EAEF06F007EF07F008C00CF009C00DF0CD
:100DE0000AC00EF00BC00FF00C1E0D1E0E1E0F1EC3
:100DF0000C2A000E0D220E220F220CC012F00DC084
:100E000013F00EC014F00FC015F00FEF07F008C07C
:100E100012F009C013F00AC014F00BC015F008500E
:100E200009100A100B10D8A418EF07F01AEF07F0FA
:100E300024EF07F0000E086E000E096E000E0A6E19
:100E4000000E0B6EB5EF07F0960E116E2EEF07F049
:100E5000112AD8901532143213321232000E1214A5
:100E60000C6E000E13140D6E000E14140E6EFE0E9A
:100E700015140F6E0C500D100E100F10D8A443EF68
:100E800007F045EF07F028EF07F053EF07F0112ABE
:100E9000010E1226000E132214221522D8901532AC
:100EA000143213321232000E12140C6E000E131490
:100EB0000D6E000E14140E6EFF0E15140F6E0C50F6
:100EC0000D100E100F10D8A468EF07F06AEF07F0AE
:100ED00047EF07F072EF07F01106D890123613367D
:100EE0001436153614BE77EF07F079EF07F081EF6F
:100EF00007F0020E11607FEF07F081EF07F06CEF53
:100F000007F011B086EF07F088EF07F089EF07F0E0
:100F1000149ED890113211C00CF00D6A0E6A0F6A3F
:100F20000CC00FF00E6A0D6A0C6A0C5012120D50B4
:100F300013120E5014120F5015121050D8B4A3EF04
:100F400007F0A5EF07F0ADEF07F00BBEACEF07F031
:100F5000AAEF07F0ADEF07F0158E12C008F013C02E
:100F600009F014C00AF015C00BF01200000E336E29
:100F7000800E346EBB0E356E450E366E000E1A6E48
:100F8000C00E1B6E7F0E1C6E440E1D6E040E80EC98
:100F90000AF001C008F002C009F00A6A0B6A000EEC
:100FA000DCEC06F008C016F009C017F00AC018F013
:100FB0000BC019F014EC05F016C02FF017C030F07C
:100FC00018C031F019C032F001EC03F02FC048F026
:100FD00030C049F031C04AF032C04BF06DEC08F03F
:100FE00048C05AF049C05BF0030E046EE80E036E71
:100FF0005AC001F05BC002F0DCEC09F001C008F05F
:1010000002C009F0000E0B6E0A0E0A6E4EEC0AF0DA
:101010000850300F566E000E046E640E036E5AC0F8
:1010200001F05BC002F0DCEC09F001C008F002C086
:1010300009F0000E0B6E0A0E0A6E4EEC0AF0085014
:10104000300F576E000E046E0A0E036E5AC001F088
:101050005BC002F0DCEC09F001C008F002C009F04E
:10106000000E0B6E0A0E0A6E4EEC0AF00850300F9E
:10107000586E5AC008F05BC009F0000E0B6E0A0EE5
:101080000A6E4EEC0AF00850300F596E5A6A000E84
:10109000066E300E056E560E076E040E086E16ECC8
:1010A0000AF0F40E526E010E536E000E546E000ED6
:1010B000556E5206000E535A545A555A52280AE198
:1010C000532808E1542806E15528D8A46AEF08F00F
:1010D0006CEF08F059EF08F012004A344B34516EAF
:1010E0005150D8A476EF08F078EF08F082EF08F0BE
:1010F000000E486E000E496E000E4A6E000E4B6EDA
:10110000EFEF08F048C04CF049C04DF04AC04EF037
:101110004BC04FF0200E92EF08F0D8904F324E3275
:101120004D324C32E82E8DEF08F04C50506E4A8E06
:10113000FF0E4816FF0E4916FF0E4A16000E4B16FC
:10114000960E515E51BEA9EF08F0A7EF08F0BFEF71
:1011500008F05150800A970FD8B0B1EF08F0B3EF04
:1011600008F0B5EF08F078EF08F0D8904B324A322B
:1011700049324832513EB5EF08F0D7EF08F01F0E64
:101180005164C5EF08F0C7EF08F0CFEF08F078EF33
:1011900008F0D890483649364A364B3651065150F9
:1011A000D8A4D5EF08F0D7EF08F0C9EF08F05050F9
:1011B000D8B4DDEF08F0DFEF08F0E7EF08F04B1EE2
:1011C0004A1E491E486C000E49224A224B2248C042
:1011D00048F049C049F04AC04AF04BC04BF01200F9
:1011E0005E04D8A4F6EF08F0F8EF08F024EF09F059
:1011F000E80E0001605D030E6159D8B002EF09F0FE
:1012000004EF09F00CEF09F081500309816E815061
:101210003F0B816E20EF09F0D00E605D070E615923
:10122000D8B015EF09F017EF09F01CEF09F0815065
:10123000FC0B816E20EF09F0000E616F000E606FF5
:10124000604B612B57EF09F0020E5E18D8A42BEF0C
:1012500009F02DEF09F051EF09F0E80E0001605D93
:10126000030E6159D8B037EF09F039EF09F041EFBB
:1012700009F08150C009816E8150FC0B816E20EF16
:1012800009F0D00E605D070E6159D8B04AEF09F041
:101290004CEF09F01CEF09F081503F0B816E20EFFD
:1012A00009F08150FC0B816E81503F0B816E120062
:1012B000EFEC0AF0A3EC0AF0FDEC0AF0080E936ED6
:1012C000816AB6EC07F0F0EC08F0010EA2EC09F030
:1012D0005C6E0E0E5C18D8A470EF09F072EF09F086
:1012E00082EF09F0010E5E6E010E5D6E000E066E5D
:1012F000500E056E5D0E076E010E086E16EC0AF0BC
:1013000061EF09F00B0E5C18D8A489EF09F08BEFA0
:1013100009F091EF09F0020E5E6E020E5D6E76EF3F
:1013200009F00D0E5C18D8A498EF09F09AEF09F0B7
:101330009EEF09F05E6A5D6A76EF09F061EF09F0F1
:10134000FEEF17F0016E0104D8A4A9EF09F0ABEF8E
:1013500009F0D0EF09F082500F0B0F0AD8B4B3EFA9
:1013600009F0B5EF09F0C2EF09F05F50D8B4BBEF58
:1013700009F0BDEF09F0C2EF09F05F6A82500F0B70
:10138000DBEF09F082500F0B0F0AD8A4CAEF09F067
:10139000CCEF09F0DAEF09F0010E5F6EDAEF09F039
:1013A0000150D8A4D6EF09F0D8EF09F0DAEF09F030
:1013B000BEEF09F0FF0E1200000E066E000E056E65
:1013C00003500410D8B4E7EF09F0E9EF09F011EF8A
:1013D0000AF0010E076EF1EF09F0D89003360436DB
:1013E000072A04AEF6EF09F0F8EF09F0EDEF09F087
:1013F000D890053606360350015C04500258D8A038
:1014000004EF0AF006EF0AF00BEF0AF00350015E5A
:101410000450025A0580D89004320332072EF8EFA8
:1014200009F005C001F006C002F012000F01436B85
:10143000446B05C001F006C002F0C1EC0AF008C020
:1014400045FF460E0C6E0F0E0D6E000E0F6E000E59
:101450000E6E39EF0AF007500E24D96EDA6A0E507C
:101460000C24E16E0F500D20E26EDFCFE7FF0E4A35
:101470000F2A0850096E0A6A09500E5C0F50800A44
:101480000B6E0A50800A0B58D8A049EF0AF04BEFB8
:101490000AF02BEF0AF00F01408712000A500B10E0
:1014A000D8B455EF0AF057EF0AF07BEF0AF0010EBF
:1014B0000C6E5FEF0AF0D8900A360B360C2A0BAE92
:1014C00064EF0AF066EF0AF05BEF0AF00A50085C7E
:1014D0000B500958D8A06FEF0AF071EF0AF075EFC2
:1014E0000AF00A50085E0B50095AD8900B320A32A3
:1014F0000C2E66EF0AF008C008F009C009F01200CF
:10150000076E07C003F0D8900336D8900336C25058
:10151000C30B0310C26EC282C2B291EF0AF093EF06
:101520000AF08CEF0AF0C350C4CF03F0046A03C082
:1015300004F0036A0310056E0450066E05C001F046
:1015400006C002F01200939493861F0E6F166F8EE2
:10155000800E6E18D8A4AFEF0AF0B1EF0AF0A8EF32
:101560000AF0776AE10E706E1B0E716E030E726EDA
:101570000D01D46B1F0E6F166F50608A608C606A0D
:10158000120001C003F0070E0316050E046ED8907A
:101590000336042EC7EF0AF003500F01426F01C05B
:1015A00003F002C004F0D89004320332D890043221
:1015B0000332D890043203320350416F1200000E00
:1015C000F66E300EF76E000EF86E0900F5CF5FF084
:1015D0000001616B606B5E6A000158EF09F0C08E1C
:1015E000C09AC088C096C090C082C094C292C19A6E
:1015F000C198C46AC36AC280120094500F09946EE5
:021600001200D6
:052FFC00DFEF0AF00107
:020000040020DA
:08000000FFFFFFFFFFFFFFFF00
:020000040030CA
:0E000000FF071F1FFF8285FF0FC00FE00F409C
:00000001FF
