:020000040000FA
:04000000FEEF17F008
:1006000000001950800B266E195019242D6E18AE5B
:100610000CEF03F00EEF03F00FEF03F02D802D50E1
:10062000D8B415EF03F017EF03F02BEF03F02D28EC
:10063000D8A41DEF03F01FEF03F027EF03F0000E27
:10064000166E000E176E000E186E000E196E188EC4
:10065000196A33EF03F0000E166E000E176E000ECF
:10066000186E000E196E1D50800B261A1D501D2489
:100670002E6E1CAE3EEF03F040EF03F041EF03F0AF
:100680002E802E50D8B447EF03F049EF03F05DEF12
:1006900003F02E28D8A44FEF03F051EF03F059EFE9
:1006A00003F0000E1A6E000E1B6E000E1C6E000E84
:1006B0001D6E1C8E1D6A65EF03F0000E1A6E000E93
:1006C0001B6E000E1C6E000E1D6E1A501B101C10AF
:1006D0001D10D8A46EEF03F070EF03F088EF03F065
:1006E000000E166E000E176E000E186E000E196EBC
:1006F000800E18127F0E19122650191216C016F00D
:1007000017C017F018C018F019C019F0C8EF04F09E
:100710002D50D8A48EEF03F090EF03F09AEF03F082
:10072000000E166E000E176E000E186E000E196E7B
:10073000C8EF04F02E502DC01EF01F6A1E5E000E82
:100740001F5A7F0E1E24276E000E1F20286E16C013
:1007500022F017C023F018C024F019C025F0000EB5
:10076000166E000E176E000E186E000E196E000E3B
:10077000296E000E2A6E000E2B6E000E2C6E2E6A55
:10078000FAEF03F02E50D8B4C8EF03F0CAEF03F02D
:10079000E1EF03F0D8902236233624362536D89060
:1007A00016361736183619362CAED9EF03F0DBEFB4
:1007B00003F0DCEF03F01680D89029362A362B366A
:1007C0002C361A50225C1B5023581C5024581D50A4
:1007D0002558D8A0EEEF03F0F0EF03F0F9EF03F0A7
:1007E0002C8C1A50225E1B50235A1C50245A1D5028
:1007F000255A2E2A190E2E6400EF04F002EF04F0A1
:10080000C2EF03F02250231024102510D8B40BEFB0
:1008100004F00DEF04F025EF04F0298025EF04F03B
:10082000D89016361736183619362CAE1AEF04F053
:100830001CEF04F01DEF04F01680D89029362A36FC
:100840002B362C362706D8A0280618AE2AEF04F03F
:100850002CEF04F010EF04F02E6A2CAE32EF04F00F
:1008600034EF04F058EF04F0FF0E29141E6EFF0E53
:100870002A141F6EFF0E2B14206E7F0E2C14216E77
:100880001E501F1020102110D8B449EF04F04BEF78
:1008900004F04FEF04F0010E2E6E58EF04F016A096
:1008A00054EF04F056EF04F058EF04F04BEF04F06F
:1008B0002E50D8B45EEF04F060EF04F084EF04F043
:1008C000010E1626000E17221822192219A06BEF0E
:1008D00004F06DEF04F084EF04F016C01EF017C0B2
:1008E0001FF018C020F019C021F02134213220322D
:1008F0001F321E321EC016F01FC017F020C018F0A5
:1009000021C019F0274A282A28BE8FEF04F028506A
:1009100008E12728D8A08FEF04F091EF04F09CEFB6
:1009200004F0000E286E2768000E166E000E176E7B
:10093000000E186E000E196E28BEA9EF04F02850A4
:1009400006E12704D8B0A7EF04F0A9EF04F0B6EF52
:1009500004F0000E286E000E276E000E166E000EBC
:10096000176E000E186E000E196E266A27C02DF045
:100970002DA0BDEF04F0BFEF04F0C2EF04F0188E1D
:10098000C3EF04F0189ED8902D30196E7CEF03F061
:100990001200106E1050D8B4D0EF04F0D2EF04F073
:1009A000F4EF04F00BBED9EF04F0D7EF04F0F4EF4E
:1009B00004F008C00CF009C00DF00AC00EF00BC026
:1009C0000FF00C1E0D1E0E1E0F1E0C2A000E0D2207
:1009D0000E220F220CC012F00DC013F00EC014F046
:1009E0000FC015F0FCEF04F008C012F009C013F0BE
:1009F0000AC014F00BC015F0085009100A100B10B3
:100A0000D8A405EF05F007EF05F011EF05F0000E93
:100A1000086E000E096E000E0A6E000E0B6EA2EF3D
:100A200005F0960E116E1BEF05F0112AD8901532C5
:100A3000143213321232000E12140C6E000E131404
:100A40000D6E000E14140E6EFE0E15140F6E0C506B
:100A50000D100E100F10D8A430EF05F032EF05F096
:100A600015EF05F040EF05F0112A010E1226000ED9
:100A7000132214221522D890153214321332123256
:100A8000000E12140C6E000E13140D6E000E1414D2
:100A90000E6EFF0E15140F6E0C500D100E100F1071
:100AA000D8A455EF05F057EF05F034EF05F05FEFF0
:100AB00005F01106D890123613361436153614BECA
:100AC00064EF05F066EF05F06EEF05F0020E1160C1
:100AD0006CEF05F06EEF05F059EF05F011B073EF14
:100AE00005F075EF05F076EF05F0149ED890113201
:100AF00011C00CF00D6A0E6A0F6A0CC00FF00E6A7E
:100B00000D6A0C6A0C5012120D5013120E50141272
:100B10000F5015121050D8B490EF05F092EF05F079
:100B20009AEF05F00BBE99EF05F097EF05F09AEFFD
:100B300005F0158E12C008F013C009F014C00AF0B9
:100B400015C00BF01200010E60EC07F0146E0E0ED3
:100B50001418D8A4AEEF05F0B0EF05F0D0EF05F013
:100B60005FBEBEEF05F05F5007E1070E5E5CD8B0D8
:100B7000BCEF05F0BEEF05F0C0EF05F05E4A5F2A5E
:100B8000080E5E185F10D8A4C8EF05F0CAEF05F094
:100B90000DEF06F0000E5F6E010E5E6E0DEF06F0BB
:100BA0000D0E1418D8A4D7EF05F0D9EF05F000EF1B
:100BB00006F05FBEE5EF05F05F5009E1020E5E5CF6
:100BC000D8A0E5EF05F0E7EF05F0F4EF05F0080E2B
:100BD0005E185F10D8B4EFEF05F0F1EF05F0F4EF19
:100BE00005F05E06D8A05F06080E5E185F10D8A458
:100BF000FCEF05F0FEEF05F00DEF06F0CAEF05F093
:100C00000B0E1418D8A407EF06F009EF06F00DEF4D
:100C100006F0000E5F6E080E5E6E000E066E200E71
:100C2000056E5E50030DF350430F076E020E086E03
:100C30009AEC07F0F40E106E010E116E000E126E9B
:100C4000000E136E1006000E115A125A135A102875
:100C50000AE1112808E1122806E11328D8A433EF8D
:100C600006F035EF06F022EF06F012003134323490
:100C7000386E3850D8A43FEF06F041EF06F04BEF46
:100C800006F0000E2F6E000E306E000E316E000E5C
:100C9000326EB8EF06F02FC033F030C034F031C000
:100CA00035F032C036F0200E5BEF06F0D8903632C9
:100CB000353234323332E82E56EF06F03350376E89
:100CC000318EFF0E2F16FF0E3016FF0E3116000E5E
:100CD0003216960E385E38BE72EF06F070EF06F0F0
:100CE00088EF06F03850800A970FD8B07AEF06F0F8
:100CF0007CEF06F07EEF06F041EF06F0D89032323E
:100D0000313230322F32383E7EEF06F0A0EF06F05F
:100D10001F0E38648EEF06F090EF06F098EF06F0A5
:100D200041EF06F0D8902F3630363136323638065D
:100D30003850D8A49EEF06F0A0EF06F092EF06F030
:100D40003750D8B4A6EF06F0A8EF06F0B0EF06F0E3
:100D5000321E311E301E2F6C000E30223122322204
:100D60002FC02FF030C030F031C031F032C032F03F
:100D70001200AE0E1A6E470E1B6E250E1C6E410E33
:100D80001D6E040E04EC08F001C008F002C009F06A
:100D90000A6A0B6A000EC9EC04F008C016F009C01C
:100DA00017F00AC018F00BC019F001EC03F016C0E0
:100DB0002FF017C030F018C031F019C032F036EC07
:100DC00006F02FC040F030C041F040C001F041C0FB
:100DD00002F0000E046E0A0E036E26EC07F00150BE
:100DE000300F3D6E40C001F041C002F0000E046EB5
:100DF0000A0E036ED2EC07F00150300F3E6E3F6AD0
:100E0000000E066E100E056E3D0E076E020E086E89
:100E10009AEC07F0F40E396E010E3A6E000E3B6E3E
:100E2000000E3C6E3906000E3A5A3B5A3C5A39289D
:100E30000AE13A2808E13B2806E13C28D8A423EF40
:100E400007F025EF07F012EF07F01200000E066E14
:100E5000000E056E03500410D8B431EF07F033EFE5
:100E600007F05BEF07F0010E076E3BEF07F0D8903D
:100E700003360436072A04AE40EF07F042EF07F0CE
:100E800037EF07F0D890053606360350015C045062
:100E90000258D8A04EEF07F050EF07F055EF07F0DB
:100EA0000350015E0450025A0580D8900432033288
:100EB000072E42EF07F005C001F006C002F0120055
:100EC000016E0104D8A467EF07F069EF07F08EEF19
:100ED00007F082500F0B0F0AD8B471EF07F073EFD1
:100EE00007F080EF07F04250D8B479EF07F07BEFBE
:100EF00007F080EF07F0426A82500F0B99EF07F07E
:100F000082500F0B0F0AD8A488EF07F08AEF07F082
:100F100098EF07F0010E426E98EF07F00150D8A449
:100F200094EF07F096EF07F098EF07F07CEF07F0EB
:100F3000FF0E12000F01436B446B05C001F006C0A9
:100F400002F045EC08F008C045FF460E0C6E0F0E8F
:100F50000D6E000E0F6E000E0E6EBDEF07F0075007
:100F60000E24D96EDA6A0E500C24E16E0F500D205B
:100F7000E26EDFCFE7FF0E4A0F2A0850096E0A6AB9
:100F800009500E5C0F50800A0B6E0A50800A0B58F5
:100F9000D8A0CDEF07F0CFEF07F0AFEF07F00F01CC
:100FA0004087120003500410D8B4D9EF07F0DBEFEC
:100FB00007F0FFEF07F0010E056EE3EF07F0D890A2
:100FC00003360436052A04AEE8EF07F0EAEF07F02F
:100FD000DFEF07F00350015C04500258D8A0F3EF94
:100FE00007F0F5EF07F0F9EF07F00350015E04504A
:100FF000025AD89004320332052EEAEF07F001C0FE
:1010000001F002C002F01200076E07C003F0D89092
:101010000336D8900336C250C30B0310C26EC2828F
:10102000C2B215EF08F017EF08F010EF08F0C35048
:10103000C4CF03F0046A03C004F0036A0310056E12
:101040000450066E05C001F006C002F01200939431
:1010500093861F0E6F166F8E800E6E18D8A433EF16
:1010600008F035EF08F02CEF08F0776AE10E706EAB
:101070001B0E716E030E726E0D01D46B1F0E6F1678
:101080006F50606A608A608C120001C003F0070E26
:101090000316050E046ED8900336042E4BEF08F0AD
:1010A00003500F01426F01C003F002C004F0D8905A
:1010B00004320332D89004320332D890043203321F
:1010C0000350416F1200300EF66E110EF76E000ED7
:1010D000F86E00EE42F010EE1CF00900F5CFEEFFC6
:1010E000E550E150FAE15F6A5E6A000178EF08F0CE
:1010F000A6EC08F0B9EC08F0B4EC08F027EC08F026
:10110000B9EC06F0A3EC05F080EF08F0FEEF17F065
:10111000948E949CAC9CAC8AAC98AC96AC84AB8E10
:10112000AB9CAB88B896810EAF6E9E989E9A1200CB
:10113000014F4E00474E0047310047320047330011
:10114000473400473500475200435F00C08EC09AC5
:10115000C088C096C090C082C094C292C19AC19803
:10116000C46AC36AC280120088EC08F0F28CF28E66
:0A117000120094500F09946E120053
:042FFC0063EF08F087
:020000040020DA
:08000000FFFFFFFFFFFFFFFF00
:020000040030CA
:0E000000FF071F1FFF8285FF0FC00FE00F409C
:00000001FF
